{
  "contractName": "EggsGameContract",
  "abi": [
    {
      "inputs": [
        {
          "internalType": "string",
          "name": "name",
          "type": "string"
        },
        {
          "internalType": "string",
          "name": "symbol",
          "type": "string"
        }
      ],
      "stateMutability": "nonpayable",
      "type": "constructor"
    },
    {
      "anonymous": false,
      "inputs": [
        {
          "indexed": true,
          "internalType": "address",
          "name": "owner",
          "type": "address"
        },
        {
          "indexed": true,
          "internalType": "address",
          "name": "spender",
          "type": "address"
        },
        {
          "indexed": false,
          "internalType": "uint256",
          "name": "value",
          "type": "uint256"
        }
      ],
      "name": "Approval",
      "type": "event"
    },
    {
      "anonymous": false,
      "inputs": [
        {
          "indexed": true,
          "internalType": "address",
          "name": "from",
          "type": "address"
        },
        {
          "indexed": true,
          "internalType": "address",
          "name": "to",
          "type": "address"
        },
        {
          "indexed": false,
          "internalType": "uint256",
          "name": "value",
          "type": "uint256"
        }
      ],
      "name": "Transfer",
      "type": "event"
    },
    {
      "inputs": [
        {
          "internalType": "address",
          "name": "owner",
          "type": "address"
        },
        {
          "internalType": "address",
          "name": "spender",
          "type": "address"
        }
      ],
      "name": "allowance",
      "outputs": [
        {
          "internalType": "uint256",
          "name": "",
          "type": "uint256"
        }
      ],
      "stateMutability": "view",
      "type": "function",
      "constant": true
    },
    {
      "inputs": [
        {
          "internalType": "address",
          "name": "spender",
          "type": "address"
        },
        {
          "internalType": "uint256",
          "name": "amount",
          "type": "uint256"
        }
      ],
      "name": "approve",
      "outputs": [
        {
          "internalType": "bool",
          "name": "",
          "type": "bool"
        }
      ],
      "stateMutability": "nonpayable",
      "type": "function"
    },
    {
      "inputs": [
        {
          "internalType": "address",
          "name": "account",
          "type": "address"
        }
      ],
      "name": "balanceOf",
      "outputs": [
        {
          "internalType": "uint256",
          "name": "",
          "type": "uint256"
        }
      ],
      "stateMutability": "view",
      "type": "function",
      "constant": true
    },
    {
      "inputs": [],
      "name": "decimals",
      "outputs": [
        {
          "internalType": "uint8",
          "name": "",
          "type": "uint8"
        }
      ],
      "stateMutability": "view",
      "type": "function",
      "constant": true
    },
    {
      "inputs": [
        {
          "internalType": "address",
          "name": "spender",
          "type": "address"
        },
        {
          "internalType": "uint256",
          "name": "subtractedValue",
          "type": "uint256"
        }
      ],
      "name": "decreaseAllowance",
      "outputs": [
        {
          "internalType": "bool",
          "name": "",
          "type": "bool"
        }
      ],
      "stateMutability": "nonpayable",
      "type": "function"
    },
    {
      "inputs": [
        {
          "internalType": "address",
          "name": "",
          "type": "address"
        }
      ],
      "name": "feeCollection",
      "outputs": [
        {
          "internalType": "uint256",
          "name": "",
          "type": "uint256"
        }
      ],
      "stateMutability": "view",
      "type": "function",
      "constant": true
    },
    {
      "inputs": [],
      "name": "gamePurse",
      "outputs": [
        {
          "internalType": "uint256",
          "name": "",
          "type": "uint256"
        }
      ],
      "stateMutability": "view",
      "type": "function",
      "constant": true
    },
    {
      "inputs": [
        {
          "internalType": "address",
          "name": "",
          "type": "address"
        }
      ],
      "name": "gameStatus",
      "outputs": [
        {
          "internalType": "bool",
          "name": "",
          "type": "bool"
        }
      ],
      "stateMutability": "view",
      "type": "function",
      "constant": true
    },
    {
      "inputs": [
        {
          "internalType": "address",
          "name": "spender",
          "type": "address"
        },
        {
          "internalType": "uint256",
          "name": "addedValue",
          "type": "uint256"
        }
      ],
      "name": "increaseAllowance",
      "outputs": [
        {
          "internalType": "bool",
          "name": "",
          "type": "bool"
        }
      ],
      "stateMutability": "nonpayable",
      "type": "function"
    },
    {
      "inputs": [],
      "name": "name",
      "outputs": [
        {
          "internalType": "string",
          "name": "",
          "type": "string"
        }
      ],
      "stateMutability": "view",
      "type": "function",
      "constant": true
    },
    {
      "inputs": [
        {
          "internalType": "address",
          "name": "",
          "type": "address"
        }
      ],
      "name": "rewards",
      "outputs": [
        {
          "internalType": "uint256",
          "name": "",
          "type": "uint256"
        }
      ],
      "stateMutability": "view",
      "type": "function",
      "constant": true
    },
    {
      "inputs": [],
      "name": "symbol",
      "outputs": [
        {
          "internalType": "string",
          "name": "",
          "type": "string"
        }
      ],
      "stateMutability": "view",
      "type": "function",
      "constant": true
    },
    {
      "inputs": [],
      "name": "totalSupply",
      "outputs": [
        {
          "internalType": "uint256",
          "name": "",
          "type": "uint256"
        }
      ],
      "stateMutability": "view",
      "type": "function",
      "constant": true
    },
    {
      "inputs": [
        {
          "internalType": "address",
          "name": "to",
          "type": "address"
        },
        {
          "internalType": "uint256",
          "name": "amount",
          "type": "uint256"
        }
      ],
      "name": "transfer",
      "outputs": [
        {
          "internalType": "bool",
          "name": "",
          "type": "bool"
        }
      ],
      "stateMutability": "nonpayable",
      "type": "function"
    },
    {
      "inputs": [
        {
          "internalType": "address",
          "name": "from",
          "type": "address"
        },
        {
          "internalType": "address",
          "name": "to",
          "type": "address"
        },
        {
          "internalType": "uint256",
          "name": "amount",
          "type": "uint256"
        }
      ],
      "name": "transferFrom",
      "outputs": [
        {
          "internalType": "bool",
          "name": "",
          "type": "bool"
        }
      ],
      "stateMutability": "nonpayable",
      "type": "function"
    },
    {
      "inputs": [
        {
          "internalType": "address",
          "name": "player",
          "type": "address"
        }
      ],
      "name": "payGameFee",
      "outputs": [],
      "stateMutability": "payable",
      "type": "function",
      "payable": true
    },
    {
      "inputs": [
        {
          "internalType": "address",
          "name": "player",
          "type": "address"
        },
        {
          "internalType": "uint256",
          "name": "winBonus",
          "type": "uint256"
        }
      ],
      "name": "playerWon",
      "outputs": [],
      "stateMutability": "nonpayable",
      "type": "function"
    },
    {
      "inputs": [
        {
          "internalType": "address",
          "name": "player",
          "type": "address"
        }
      ],
      "name": "playerLose",
      "outputs": [],
      "stateMutability": "nonpayable",
      "type": "function"
    },
    {
      "inputs": [],
      "name": "claimAllRewards",
      "outputs": [],
      "stateMutability": "nonpayable",
      "type": "function"
    }
  ],
  "bytecode": "0x60806040523480156200001157600080fd5b50604051620023a0380380620023a0833981810160405281019062000037919062000303565b8181816003908051906020019062000051929190620000b6565b5080600490805190602001906200006a929190620000b6565b50505033600560006101000a81548173ffffffffffffffffffffffffffffffffffffffff021916908373ffffffffffffffffffffffffffffffffffffffff1602179055505050620003ec565b828054620000c490620003b7565b90600052602060002090601f016020900481019282620000e8576000855562000134565b82601f106200010357805160ff191683800117855562000134565b8280016001018555821562000134579182015b828111156200013357825182559160200191906001019062000116565b5b50905062000143919062000147565b5090565b5b808211156200016257600081600090555060010162000148565b5090565b6000604051905090565b600080fd5b600080fd5b600080fd5b600080fd5b6000601f19601f8301169050919050565b7f4e487b7100000000000000000000000000000000000000000000000000000000600052604160045260246000fd5b620001cf8262000184565b810181811067ffffffffffffffff82111715620001f157620001f062000195565b5b80604052505050565b60006200020662000166565b9050620002148282620001c4565b919050565b600067ffffffffffffffff82111562000237576200023662000195565b5b620002428262000184565b9050602081019050919050565b60005b838110156200026f57808201518184015260208101905062000252565b838111156200027f576000848401525b50505050565b60006200029c620002968462000219565b620001fa565b905082815260208101848484011115620002bb57620002ba6200017f565b5b620002c88482856200024f565b509392505050565b600082601f830112620002e857620002e76200017a565b5b8151620002fa84826020860162000285565b91505092915050565b600080604083850312156200031d576200031c62000170565b5b600083015167ffffffffffffffff8111156200033e576200033d62000175565b5b6200034c85828601620002d0565b925050602083015167ffffffffffffffff81111562000370576200036f62000175565b5b6200037e85828601620002d0565b9150509250929050565b7f4e487b7100000000000000000000000000000000000000000000000000000000600052602260045260246000fd5b60006002820490506001821680620003d057607f821691505b602082108103620003e657620003e562000388565b5b50919050565b611fa480620003fc6000396000f3fe6080604052600436106101145760003560e01c806339509351116100a0578063a9059cbb11610064578063a9059cbb146103ba578063d59a9162146103f7578063dc145ea514610434578063dd62ed3e1461045d578063e61511dd1461049a57610114565b806339509351146102bc5780636cc354ff146102f957806370a082311461031557806395d89b4114610352578063a457c2d71461037d57610114565b80631044ec7b116100e75780631044ec7b146101d557806318160ddd1461020057806323b872dd1461022b57806324e7fee214610268578063313ce5671461029157610114565b806306fdde03146101195780630700037d14610144578063095ea7b3146101815780630b83a727146101be575b600080fd5b34801561012557600080fd5b5061012e6104d7565b60405161013b919061156f565b60405180910390f35b34801561015057600080fd5b5061016b600480360381019061016691906115f4565b610569565b604051610178919061163a565b60405180910390f35b34801561018d57600080fd5b506101a860048036038101906101a39190611681565b610581565b6040516101b591906116dc565b60405180910390f35b3480156101ca57600080fd5b506101d36105a4565b005b3480156101e157600080fd5b506101ea610756565b6040516101f7919061163a565b60405180910390f35b34801561020c57600080fd5b5061021561075c565b604051610222919061163a565b60405180910390f35b34801561023757600080fd5b50610252600480360381019061024d91906116f7565b610766565b60405161025f91906116dc565b60405180910390f35b34801561027457600080fd5b5061028f600480360381019061028a91906115f4565b610795565b005b34801561029d57600080fd5b506102a6610911565b6040516102b39190611766565b60405180910390f35b3480156102c857600080fd5b506102e360048036038101906102de9190611681565b61091a565b6040516102f091906116dc565b60405180910390f35b610313600480360381019061030e91906115f4565b610951565b005b34801561032157600080fd5b5061033c600480360381019061033791906115f4565b610b68565b604051610349919061163a565b60405180910390f35b34801561035e57600080fd5b50610367610bb0565b604051610374919061156f565b60405180910390f35b34801561038957600080fd5b506103a4600480360381019061039f9190611681565b610c42565b6040516103b191906116dc565b60405180910390f35b3480156103c657600080fd5b506103e160048036038101906103dc9190611681565b610cb9565b6040516103ee91906116dc565b60405180910390f35b34801561040357600080fd5b5061041e600480360381019061041991906115f4565b610cdc565b60405161042b91906116dc565b60405180910390f35b34801561044057600080fd5b5061045b60048036038101906104569190611681565b610cfc565b005b34801561046957600080fd5b50610484600480360381019061047f9190611781565b610f51565b604051610491919061163a565b60405180910390f35b3480156104a657600080fd5b506104c160048036038101906104bc91906115f4565b610fd8565b6040516104ce919061163a565b60405180910390f35b6060600380546104e6906117f0565b80601f0160208091040260200160405190810160405280929190818152602001828054610512906117f0565b801561055f5780601f106105345761010080835404028352916020019161055f565b820191906000526020600020905b81548152906001019060200180831161054257829003601f168201915b5050505050905090565b60096020528060005260406000206000915090505481565b60008061058c610ff0565b9050610599818585610ff8565b600191505092915050565b60003390506000600960008373ffffffffffffffffffffffffffffffffffffffff1673ffffffffffffffffffffffffffffffffffffffff168152602001908152602001600020549050806006541015610632576040517f08c379a00000000000000000000000000000000000000000000000000000000081526004016106299061186d565b60405180910390fd5b60008273ffffffffffffffffffffffffffffffffffffffff1661c3508360405161065b906118be565b600060405180830381858888f193505050503d8060008114610699576040519150601f19603f3d011682016040523d82523d6000602084013e61069e565b606091505b50509050806106e2576040517f08c379a00000000000000000000000000000000000000000000000000000000081526004016106d99061191f565b60405180910390fd5b81600960008573ffffffffffffffffffffffffffffffffffffffff1673ffffffffffffffffffffffffffffffffffffffff1681526020019081526020016000206000828254610731919061196e565b92505081905550816006600082825461074a919061196e565b92505081905550505050565b60065481565b6000600254905090565b600080610771610ff0565b905061077e8582856111c1565b61078985858561124d565b60019150509392505050565b600860008273ffffffffffffffffffffffffffffffffffffffff1673ffffffffffffffffffffffffffffffffffffffff16815260200190815260200160002060009054906101000a900460ff16610821576040517f08c379a0000000000000000000000000000000000000000000000000000000008152600401610818906119ee565b60405180910390fd5b6000600860008373ffffffffffffffffffffffffffffffffffffffff1673ffffffffffffffffffffffffffffffffffffffff16815260200190815260200160002060006101000a81548160ff021916908315150217905550600760008273ffffffffffffffffffffffffffffffffffffffff1673ffffffffffffffffffffffffffffffffffffffff16815260200190815260200160002054600760008373ffffffffffffffffffffffffffffffffffffffff1673ffffffffffffffffffffffffffffffffffffffff1681526020019081526020016000206000828254610907919061196e565b9250508190555050565b60006012905090565b600080610925610ff0565b90506109468185856109378589610f51565b6109419190611a0e565b610ff8565b600191505092915050565b6000600760008373ffffffffffffffffffffffffffffffffffffffff1673ffffffffffffffffffffffffffffffffffffffff16815260200190815260200160002054146109d3576040517f08c379a00000000000000000000000000000000000000000000000000000000081526004016109ca90611ab0565b60405180910390fd5b600860008273ffffffffffffffffffffffffffffffffffffffff1673ffffffffffffffffffffffffffffffffffffffff16815260200190815260200160002060009054906101000a900460ff1615610a60576040517f08c379a0000000000000000000000000000000000000000000000000000000008152600401610a5790611b1c565b60405180910390fd5b600034905080600760008473ffffffffffffffffffffffffffffffffffffffff1673ffffffffffffffffffffffffffffffffffffffff16815260200190815260200160002054610ab09190611a0e565b600760008473ffffffffffffffffffffffffffffffffffffffff1673ffffffffffffffffffffffffffffffffffffffff168152602001908152602001600020819055506001600860008473ffffffffffffffffffffffffffffffffffffffff1673ffffffffffffffffffffffffffffffffffffffff16815260200190815260200160002060006101000a81548160ff0219169083151502179055508060066000828254610b5d9190611a0e565b925050819055505050565b60008060008373ffffffffffffffffffffffffffffffffffffffff1673ffffffffffffffffffffffffffffffffffffffff168152602001908152602001600020549050919050565b606060048054610bbf906117f0565b80601f0160208091040260200160405190810160405280929190818152602001828054610beb906117f0565b8015610c385780601f10610c0d57610100808354040283529160200191610c38565b820191906000526020600020905b815481529060010190602001808311610c1b57829003601f168201915b5050505050905090565b600080610c4d610ff0565b90506000610c5b8286610f51565b905083811015610ca0576040517f08c379a0000000000000000000000000000000000000000000000000000000008152600401610c9790611bae565b60405180910390fd5b610cad8286868403610ff8565b60019250505092915050565b600080610cc4610ff0565b9050610cd181858561124d565b600191505092915050565b60086020528060005260406000206000915054906101000a900460ff1681565b600860008373ffffffffffffffffffffffffffffffffffffffff1673ffffffffffffffffffffffffffffffffffffffff16815260200190815260200160002060009054906101000a900460ff16610d88576040517f08c379a0000000000000000000000000000000000000000000000000000000008152600401610d7f906119ee565b60405180910390fd5b6000600860008473ffffffffffffffffffffffffffffffffffffffff1673ffffffffffffffffffffffffffffffffffffffff16815260200190815260200160002060006101000a81548160ff02191690831515021790555080600760008473ffffffffffffffffffffffffffffffffffffffff1673ffffffffffffffffffffffffffffffffffffffff16815260200190815260200160002054610e2b9190611bce565b600960008473ffffffffffffffffffffffffffffffffffffffff1673ffffffffffffffffffffffffffffffffffffffff16815260200190815260200160002054610e759190611a0e565b600960008473ffffffffffffffffffffffffffffffffffffffff1673ffffffffffffffffffffffffffffffffffffffff16815260200190815260200160002081905550600760008373ffffffffffffffffffffffffffffffffffffffff1673ffffffffffffffffffffffffffffffffffffffff16815260200190815260200160002054600760008473ffffffffffffffffffffffffffffffffffffffff1673ffffffffffffffffffffffffffffffffffffffff1681526020019081526020016000206000828254610f46919061196e565b925050819055505050565b6000600160008473ffffffffffffffffffffffffffffffffffffffff1673ffffffffffffffffffffffffffffffffffffffff16815260200190815260200160002060008373ffffffffffffffffffffffffffffffffffffffff1673ffffffffffffffffffffffffffffffffffffffff16815260200190815260200160002054905092915050565b60076020528060005260406000206000915090505481565b600033905090565b600073ffffffffffffffffffffffffffffffffffffffff168373ffffffffffffffffffffffffffffffffffffffff1603611067576040517f08c379a000000000000000000000000000000000000000000000000000000000815260040161105e90611c9a565b60405180910390fd5b600073ffffffffffffffffffffffffffffffffffffffff168273ffffffffffffffffffffffffffffffffffffffff16036110d6576040517f08c379a00000000000000000000000000000000000000000000000000000000081526004016110cd90611d2c565b60405180910390fd5b80600160008573ffffffffffffffffffffffffffffffffffffffff1673ffffffffffffffffffffffffffffffffffffffff16815260200190815260200160002060008473ffffffffffffffffffffffffffffffffffffffff1673ffffffffffffffffffffffffffffffffffffffff168152602001908152602001600020819055508173ffffffffffffffffffffffffffffffffffffffff168373ffffffffffffffffffffffffffffffffffffffff167f8c5be1e5ebec7d5bd14f71427d1e84f3dd0314c0f7b2291e5b200ac8c7c3b925836040516111b4919061163a565b60405180910390a3505050565b60006111cd8484610f51565b90507fffffffffffffffffffffffffffffffffffffffffffffffffffffffffffffffff81146112475781811015611239576040517f08c379a000000000000000000000000000000000000000000000000000000000815260040161123090611d98565b60405180910390fd5b6112468484848403610ff8565b5b50505050565b600073ffffffffffffffffffffffffffffffffffffffff168373ffffffffffffffffffffffffffffffffffffffff16036112bc576040517f08c379a00000000000000000000000000000000000000000000000000000000081526004016112b390611e2a565b60405180910390fd5b600073ffffffffffffffffffffffffffffffffffffffff168273ffffffffffffffffffffffffffffffffffffffff160361132b576040517f08c379a000000000000000000000000000000000000000000000000000000000815260040161132290611ebc565b60405180910390fd5b6113368383836114cc565b60008060008573ffffffffffffffffffffffffffffffffffffffff1673ffffffffffffffffffffffffffffffffffffffff168152602001908152602001600020549050818110156113bc576040517f08c379a00000000000000000000000000000000000000000000000000000000081526004016113b390611f4e565b60405180910390fd5b8181036000808673ffffffffffffffffffffffffffffffffffffffff1673ffffffffffffffffffffffffffffffffffffffff16815260200190815260200160002081905550816000808573ffffffffffffffffffffffffffffffffffffffff1673ffffffffffffffffffffffffffffffffffffffff168152602001908152602001600020600082825461144f9190611a0e565b925050819055508273ffffffffffffffffffffffffffffffffffffffff168473ffffffffffffffffffffffffffffffffffffffff167fddf252ad1be2c89b69c2b068fc378daa952ba7f163c4a11628f55a4df523b3ef846040516114b3919061163a565b60405180910390a36114c68484846114d1565b50505050565b505050565b505050565b600081519050919050565b600082825260208201905092915050565b60005b838110156115105780820151818401526020810190506114f5565b8381111561151f576000848401525b50505050565b6000601f19601f8301169050919050565b6000611541826114d6565b61154b81856114e1565b935061155b8185602086016114f2565b61156481611525565b840191505092915050565b600060208201905081810360008301526115898184611536565b905092915050565b600080fd5b600073ffffffffffffffffffffffffffffffffffffffff82169050919050565b60006115c182611596565b9050919050565b6115d1816115b6565b81146115dc57600080fd5b50565b6000813590506115ee816115c8565b92915050565b60006020828403121561160a57611609611591565b5b6000611618848285016115df565b91505092915050565b6000819050919050565b61163481611621565b82525050565b600060208201905061164f600083018461162b565b92915050565b61165e81611621565b811461166957600080fd5b50565b60008135905061167b81611655565b92915050565b6000806040838503121561169857611697611591565b5b60006116a6858286016115df565b92505060206116b78582860161166c565b9150509250929050565b60008115159050919050565b6116d6816116c1565b82525050565b60006020820190506116f160008301846116cd565b92915050565b6000806000606084860312156117105761170f611591565b5b600061171e868287016115df565b935050602061172f868287016115df565b92505060406117408682870161166c565b9150509250925092565b600060ff82169050919050565b6117608161174a565b82525050565b600060208201905061177b6000830184611757565b92915050565b6000806040838503121561179857611797611591565b5b60006117a6858286016115df565b92505060206117b7858286016115df565b9150509250929050565b7f4e487b7100000000000000000000000000000000000000000000000000000000600052602260045260246000fd5b6000600282049050600182168061180857607f821691505b60208210810361181b5761181a6117c1565b5b50919050565b7f5075727365206973206c6f772c2074727920616761696e206c61746572000000600082015250565b6000611857601d836114e1565b915061186282611821565b602082019050919050565b600060208201905081810360008301526118868161184a565b9050919050565b600081905092915050565b50565b60006118a860008361188d565b91506118b382611898565b600082019050919050565b60006118c98261189b565b9150819050919050565b7f52657761726473206e6f742073656e7420746f20706c61796572000000000000600082015250565b6000611909601a836114e1565b9150611914826118d3565b602082019050919050565b60006020820190508181036000830152611938816118fc565b9050919050565b7f4e487b7100000000000000000000000000000000000000000000000000000000600052601160045260246000fd5b600061197982611621565b915061198483611621565b9250828210156119975761199661193f565b5b828203905092915050565b7f47616d65206973206e6f742076616c6964210000000000000000000000000000600082015250565b60006119d86012836114e1565b91506119e3826119a2565b602082019050919050565b60006020820190508181036000830152611a07816119cb565b9050919050565b6000611a1982611621565b9150611a2483611621565b9250827fffffffffffffffffffffffffffffffffffffffffffffffffffffffffffffffff03821115611a5957611a5861193f565b5b828201905092915050565b7f47616d652046656520616c726561647920706169642100000000000000000000600082015250565b6000611a9a6016836114e1565b9150611aa582611a64565b602082019050919050565b60006020820190508181036000830152611ac981611a8d565b9050919050565b7f47616d6520697320616c726561647920656e61626c6564210000000000000000600082015250565b6000611b066018836114e1565b9150611b1182611ad0565b602082019050919050565b60006020820190508181036000830152611b3581611af9565b9050919050565b7f45524332303a2064656372656173656420616c6c6f77616e63652062656c6f7760008201527f207a65726f000000000000000000000000000000000000000000000000000000602082015250565b6000611b986025836114e1565b9150611ba382611b3c565b604082019050919050565b60006020820190508181036000830152611bc781611b8b565b9050919050565b6000611bd982611621565b9150611be483611621565b9250817fffffffffffffffffffffffffffffffffffffffffffffffffffffffffffffffff0483118215151615611c1d57611c1c61193f565b5b828202905092915050565b7f45524332303a20617070726f76652066726f6d20746865207a65726f2061646460008201527f7265737300000000000000000000000000000000000000000000000000000000602082015250565b6000611c846024836114e1565b9150611c8f82611c28565b604082019050919050565b60006020820190508181036000830152611cb381611c77565b9050919050565b7f45524332303a20617070726f766520746f20746865207a65726f20616464726560008201527f7373000000000000000000000000000000000000000000000000000000000000602082015250565b6000611d166022836114e1565b9150611d2182611cba565b604082019050919050565b60006020820190508181036000830152611d4581611d09565b9050919050565b7f45524332303a20696e73756666696369656e7420616c6c6f77616e6365000000600082015250565b6000611d82601d836114e1565b9150611d8d82611d4c565b602082019050919050565b60006020820190508181036000830152611db181611d75565b9050919050565b7f45524332303a207472616e736665722066726f6d20746865207a65726f20616460008201527f6472657373000000000000000000000000000000000000000000000000000000602082015250565b6000611e146025836114e1565b9150611e1f82611db8565b604082019050919050565b60006020820190508181036000830152611e4381611e07565b9050919050565b7f45524332303a207472616e7366657220746f20746865207a65726f206164647260008201527f6573730000000000000000000000000000000000000000000000000000000000602082015250565b6000611ea66023836114e1565b9150611eb182611e4a565b604082019050919050565b60006020820190508181036000830152611ed581611e99565b9050919050565b7f45524332303a207472616e7366657220616d6f756e742065786365656473206260008201527f616c616e63650000000000000000000000000000000000000000000000000000602082015250565b6000611f386026836114e1565b9150611f4382611edc565b604082019050919050565b60006020820190508181036000830152611f6781611f2b565b905091905056fea26469706673582212209bc6555c9419696b9280a24122500346d45ad3addf7687249c260a3681859c8f64736f6c634300080d0033",
  "immutableReferences": {},
  "source": "// SPDX-License-Identifier: MIT\npragma solidity >=0.4.22 <0.9.0;\n\nimport '@openzeppelin/contracts/token/ERC20/ERC20.sol';\n\ncontract EggsGameContract is ERC20 {\n    address owner;\n    uint256 public gamePurse;\n\n    mapping(address => uint256) public feeCollection;\n    mapping(address => bool) public gameStatus;\n    mapping(address => uint256) public rewards;\n\n    constructor(string memory name, string memory symbol) ERC20(name, symbol) {\n        owner = msg.sender;\n    }\n\n    function payGameFee(address player) public payable {\n      require(feeCollection[player] == 0, \"Game Fee already paid!\");\n      require(!gameStatus[player], \"Game is already enabled!\");\n      uint256 amount = msg.value;\n      feeCollection[player] = feeCollection[player] + amount;\n      gameStatus[player] = true;\n      gamePurse += amount;\n    }\n\n    function playerWon(address player, uint256 winBonus) external {\n      require(gameStatus[player], \"Game is not valid!\");\n      gameStatus[player] = false;      \n      rewards[player] = rewards[player] + (feeCollection[player] * winBonus);       \n      feeCollection[player] -= feeCollection[player];\n    }\n\n    function playerLose(address player) public {\n      require(gameStatus[player], \"Game is not valid!\");\n      gameStatus[player] = false;      \n      //payable(owner).transfer(feeCollection[player]);\n      feeCollection[player] -= feeCollection[player];\n    }\n\n    function claimAllRewards() public {\n      address player = msg.sender;\n      uint256 rewardAmount = rewards[player];\n      require(gamePurse >= rewardAmount, 'Purse is low, try again later');\n      (bool sent, ) = player.call{gas :50000, value: rewardAmount}(\"\");\n      require(sent, \"Rewards not sent to player\");\n      rewards[player] -= rewardAmount;\n      gamePurse -= rewardAmount;\n    }\n}\n",
  "sourcePath": "C:\\Users\\megum\\OneDrive\\Documents\\Course\\thirdweb\\egg-picker-master\\contracts\\EggsGameContract.sol",
  "compiler": {
    "name": "solc",
    "version": "0.8.13+commit.abaa5c0e.Emscripten.clang"
  },
  "schemaVersion": "3.4.16",
  "updatedAt": "2023-12-10T06:37:09.776Z",
  "networkType": "ethereum",
  "devdoc": {
    "kind": "dev",
    "methods": {
      "allowance(address,address)": {
        "details": "See {IERC20-allowance}."
      },
      "approve(address,uint256)": {
        "details": "See {IERC20-approve}. NOTE: If `amount` is the maximum `uint256`, the allowance is not updated on `transferFrom`. This is semantically equivalent to an infinite approval. Requirements: - `spender` cannot be the zero address."
      },
      "balanceOf(address)": {
        "details": "See {IERC20-balanceOf}."
      },
      "decimals()": {
        "details": "Returns the number of decimals used to get its user representation. For example, if `decimals` equals `2`, a balance of `505` tokens should be displayed to a user as `5.05` (`505 / 10 ** 2`). Tokens usually opt for a value of 18, imitating the relationship between Ether and Wei. This is the value {ERC20} uses, unless this function is overridden; NOTE: This information is only used for _display_ purposes: it in no way affects any of the arithmetic of the contract, including {IERC20-balanceOf} and {IERC20-transfer}."
      },
      "decreaseAllowance(address,uint256)": {
        "details": "Atomically decreases the allowance granted to `spender` by the caller. This is an alternative to {approve} that can be used as a mitigation for problems described in {IERC20-approve}. Emits an {Approval} event indicating the updated allowance. Requirements: - `spender` cannot be the zero address. - `spender` must have allowance for the caller of at least `subtractedValue`."
      },
      "increaseAllowance(address,uint256)": {
        "details": "Atomically increases the allowance granted to `spender` by the caller. This is an alternative to {approve} that can be used as a mitigation for problems described in {IERC20-approve}. Emits an {Approval} event indicating the updated allowance. Requirements: - `spender` cannot be the zero address."
      },
      "name()": {
        "details": "Returns the name of the token."
      },
      "symbol()": {
        "details": "Returns the symbol of the token, usually a shorter version of the name."
      },
      "totalSupply()": {
        "details": "See {IERC20-totalSupply}."
      },
      "transfer(address,uint256)": {
        "details": "See {IERC20-transfer}. Requirements: - `to` cannot be the zero address. - the caller must have a balance of at least `amount`."
      },
      "transferFrom(address,address,uint256)": {
        "details": "See {IERC20-transferFrom}. Emits an {Approval} event indicating the updated allowance. This is not required by the EIP. See the note at the beginning of {ERC20}. NOTE: Does not update the allowance if the current allowance is the maximum `uint256`. Requirements: - `from` and `to` cannot be the zero address. - `from` must have a balance of at least `amount`. - the caller must have allowance for ``from``'s tokens of at least `amount`."
      }
    },
    "version": 1
  },
  "userdoc": {
    "kind": "user",
    "methods": {},
    "version": 1
  }
}